{
  "fileName": "ContractA.sol",
  "contractName": "ContractA",
  "source": "pragma solidity ^0.6.0;\nimport './Token.sol';\nimport \"@openzeppelin/upgrades/contracts/Initializable.sol\";\ncontract ContractA is Initializable{\n    Token public _token;\n    mapping(address=>uint256) _balance;\n    function initialize(Token addr) public initializer{\n        _token=addr;\n    }\n    function deposit(address owner) public{\n        uint256 _tokens=_token.balanceOf(owner);    \n        //_token.approve(address(this),_tokens);\n        _token.transferHelper(owner,address(this),_tokens);\n        _balance[owner]=_tokens;\n        timeout=block.timestamp;\n    }\n    function timeOut() public view returns(uint){\n        return timeout;\n    }\n    function withdraw(address owner) public{\n        require(block.timestamp>=timeout + 15 seconds,\"time not expired\");\n        _token.transferHelper(address(this),owner,_balance[owner]);\n        _balance[owner]=0;\n    }\n    function getBalance(address owner) public view returns(uint256){\n        return _token.balanceOf(owner);\n    }\n    function getBalance1(address owner) public view returns(uint256){\n        return _balance[owner];\n    }\n    function getAddress() public view returns(address){\n        return address(this);\n    }\n    function getTokenAddress() public view returns(address){\n        return address(_token);\n    }\n    function getCurrentTime() public view returns(uint){\n        return block.timestamp;\n    }\n    function updateTime(uint secs) public returns(uint){\n        timeout=block.timestamp+secs;\n    }\n    uint timeout;\n}",
  "sourcePath": "contracts/ContractA.sol",
  "abi": [
    {
      "inputs": [],
      "name": "_token",
      "outputs": [
        {
          "internalType": "contract Token",
          "name": "",
          "type": "address"
        }
      ],
      "stateMutability": "view",
      "type": "function"
    },
    {
      "inputs": [
        {
          "internalType": "address",
          "name": "owner",
          "type": "address"
        }
      ],
      "name": "deposit",
      "outputs": [],
      "stateMutability": "nonpayable",
      "type": "function"
    },
    {
      "inputs": [],
      "name": "getAddress",
      "outputs": [
        {
          "internalType": "address",
          "name": "",
          "type": "address"
        }
      ],
      "stateMutability": "view",
      "type": "function"
    },
    {
      "inputs": [
        {
          "internalType": "address",
          "name": "owner",
          "type": "address"
        }
      ],
      "name": "getBalance",
      "outputs": [
        {
          "internalType": "uint256",
          "name": "",
          "type": "uint256"
        }
      ],
      "stateMutability": "view",
      "type": "function"
    },
    {
      "inputs": [
        {
          "internalType": "address",
          "name": "owner",
          "type": "address"
        }
      ],
      "name": "getBalance1",
      "outputs": [
        {
          "internalType": "uint256",
          "name": "",
          "type": "uint256"
        }
      ],
      "stateMutability": "view",
      "type": "function"
    },
    {
      "inputs": [],
      "name": "getCurrentTime",
      "outputs": [
        {
          "internalType": "uint256",
          "name": "",
          "type": "uint256"
        }
      ],
      "stateMutability": "view",
      "type": "function"
    },
    {
      "inputs": [],
      "name": "getTokenAddress",
      "outputs": [
        {
          "internalType": "address",
          "name": "",
          "type": "address"
        }
      ],
      "stateMutability": "view",
      "type": "function"
    },
    {
      "inputs": [
        {
          "internalType": "contract Token",
          "name": "addr",
          "type": "address"
        }
      ],
      "name": "initialize",
      "outputs": [],
      "stateMutability": "nonpayable",
      "type": "function"
    },
    {
      "inputs": [],
      "name": "timeOut",
      "outputs": [
        {
          "internalType": "uint256",
          "name": "",
          "type": "uint256"
        }
      ],
      "stateMutability": "view",
      "type": "function"
    },
    {
      "inputs": [
        {
          "internalType": "uint256",
          "name": "secs",
          "type": "uint256"
        }
      ],
      "name": "updateTime",
      "outputs": [
        {
          "internalType": "uint256",
          "name": "",
          "type": "uint256"
        }
      ],
      "stateMutability": "nonpayable",
      "type": "function"
    },
    {
      "inputs": [
        {
          "internalType": "address",
          "name": "owner",
          "type": "address"
        }
      ],
      "name": "withdraw",
      "outputs": [],
      "stateMutability": "nonpayable",
      "type": "function"
    }
  ],
  "bytecode": "0x608060405234801561001057600080fd5b50610a3a806100206000396000f3fe608060405234801561001057600080fd5b50600436106100a95760003560e01c8063614d85e111610071578063614d85e1146101d05780636c59bd0c146101ee578063c4d66de814610230578063ecd0c0c314610274578063f340fa01146102a8578063f8b2cb4f146102ec576100a9565b806310fe9ae8146100ae57806329cb924d146100e257806335be6b971461010057806338cc48311461015857806351cff8d91461018c575b600080fd5b6100b6610344565b604051808273ffffffffffffffffffffffffffffffffffffffff16815260200191505060405180910390f35b6100ea61036e565b6040518082815260200191505060405180910390f35b6101426004803603602081101561011657600080fd5b81019080803573ffffffffffffffffffffffffffffffffffffffff169060200190929190505050610376565b6040518082815260200191505060405180910390f35b6101606103bf565b604051808273ffffffffffffffffffffffffffffffffffffffff16815260200191505060405180910390f35b6101ce600480360360208110156101a257600080fd5b81019080803573ffffffffffffffffffffffffffffffffffffffff1690602001909291905050506103c7565b005b6101d8610592565b6040518082815260200191505060405180910390f35b61021a6004803603602081101561020457600080fd5b810190808035906020019092919050505061059c565b6040518082815260200191505060405180910390f35b6102726004803603602081101561024657600080fd5b81019080803573ffffffffffffffffffffffffffffffffffffffff1690602001909291905050506105ac565b005b61027c6106ec565b604051808273ffffffffffffffffffffffffffffffffffffffff16815260200191505060405180910390f35b6102ea600480360360208110156102be57600080fd5b81019080803573ffffffffffffffffffffffffffffffffffffffff169060200190929190505050610712565b005b61032e6004803603602081101561030257600080fd5b81019080803573ffffffffffffffffffffffffffffffffffffffff1690602001909291905050506108f2565b6040518082815260200191505060405180910390f35b6000603360009054906101000a900473ffffffffffffffffffffffffffffffffffffffff16905090565b600042905090565b6000603460008373ffffffffffffffffffffffffffffffffffffffff1673ffffffffffffffffffffffffffffffffffffffff168152602001908152602001600020549050919050565b600030905090565b600f60355401421015610442576040517f08c379a00000000000000000000000000000000000000000000000000000000081526004018080602001828103825260108152602001807f74696d65206e6f7420657870697265640000000000000000000000000000000081525060200191505060405180910390fd5b603360009054906101000a900473ffffffffffffffffffffffffffffffffffffffff1673ffffffffffffffffffffffffffffffffffffffff16632388a6f23083603460008673ffffffffffffffffffffffffffffffffffffffff1673ffffffffffffffffffffffffffffffffffffffff168152602001908152602001600020546040518463ffffffff1660e01b8152600401808473ffffffffffffffffffffffffffffffffffffffff1681526020018373ffffffffffffffffffffffffffffffffffffffff1681526020018281526020019350505050600060405180830381600087803b15801561053257600080fd5b505af1158015610546573d6000803e3d6000fd5b505050506000603460008373ffffffffffffffffffffffffffffffffffffffff1673ffffffffffffffffffffffffffffffffffffffff1681526020019081526020016000208190555050565b6000603554905090565b6000814201603581905550919050565b600060019054906101000a900460ff16806105cb57506105ca6109bf565b5b806105e1575060008054906101000a900460ff16155b610636576040517f08c379a000000000000000000000000000000000000000000000000000000000815260040180806020018281038252602e8152602001806109d7602e913960400191505060405180910390fd5b60008060019054906101000a900460ff161590508015610686576001600060016101000a81548160ff02191690831515021790555060016000806101000a81548160ff0219169083151502179055505b81603360006101000a81548173ffffffffffffffffffffffffffffffffffffffff021916908373ffffffffffffffffffffffffffffffffffffffff16021790555080156106e85760008060016101000a81548160ff0219169083151502179055505b5050565b603360009054906101000a900473ffffffffffffffffffffffffffffffffffffffff1681565b6000603360009054906101000a900473ffffffffffffffffffffffffffffffffffffffff1673ffffffffffffffffffffffffffffffffffffffff166370a08231836040518263ffffffff1660e01b8152600401808273ffffffffffffffffffffffffffffffffffffffff16815260200191505060206040518083038186803b15801561079d57600080fd5b505afa1580156107b1573d6000803e3d6000fd5b505050506040513d60208110156107c757600080fd5b81019080805190602001909291905050509050603360009054906101000a900473ffffffffffffffffffffffffffffffffffffffff1673ffffffffffffffffffffffffffffffffffffffff16632388a6f28330846040518463ffffffff1660e01b8152600401808473ffffffffffffffffffffffffffffffffffffffff1681526020018373ffffffffffffffffffffffffffffffffffffffff1681526020018281526020019350505050600060405180830381600087803b15801561088b57600080fd5b505af115801561089f573d6000803e3d6000fd5b5050505080603460008473ffffffffffffffffffffffffffffffffffffffff1673ffffffffffffffffffffffffffffffffffffffff16815260200190815260200160002081905550426035819055505050565b6000603360009054906101000a900473ffffffffffffffffffffffffffffffffffffffff1673ffffffffffffffffffffffffffffffffffffffff166370a08231836040518263ffffffff1660e01b8152600401808273ffffffffffffffffffffffffffffffffffffffff16815260200191505060206040518083038186803b15801561097d57600080fd5b505afa158015610991573d6000803e3d6000fd5b505050506040513d60208110156109a757600080fd5b81019080805190602001909291905050509050919050565b6000803090506000813b905060008114925050509056fe436f6e747261637420696e7374616e63652068617320616c7265616479206265656e20696e697469616c697a6564a2646970667358221220ae6ef74a0da35e403e4bde99b4d9cdc9da7498e0c5e4cd1b0c362e9c03ccd98764736f6c634300060c0033",
  "compiler": {
    "name": "solc",
    "version": "0.6.12+commit.27d51765.Emscripten.clang",
    "optimizer": {
      "enabled": false,
      "runs": 200
    },
    "evmVersion": "petersburg"
  }
}