{
  "fileName": "Token.sol",
  "contractName": "Ownable",
  "source": "pragma solidity ^0.6.0;\nimport \"@openzeppelin/upgrades/contracts/Initializable.sol\";\n// Ownable contract from open zepplin libraray\n\ncontract Ownable is Initializable{\n    address private _owner;\n\n    event OwnershipTransferred(\n        address indexed previousOwner,\n        address indexed newOwner\n    );\n\n    /**\n     * @dev Initializes the contract setting the deployer as the initial owner.\n     */\n    function initialize() public virtual initializer {\n        _owner = msg.sender;\n        emit OwnershipTransferred(address(0), _owner);\n    }\n\n    /**\n     * @dev Returns the address of the current owner.\n     */\n    function owner() public view returns (address) {\n        return _owner;\n    }\n\n    /**\n     * @dev Throws if called by any account other than the owner.\n     */\n    modifier onlyOwner() {\n        require(isOwner(), \"Ownable: caller is not the owner\");\n        _;\n    }\n\n    /**\n     * @dev Returns true if the caller is the current owner.\n     */\n    function isOwner() public view returns (bool) {\n        return msg.sender == _owner;\n    }\n\n    /**\n     * @dev Leaves the contract without owner. It will not be possible to call\n     * `onlyOwner` functions anymore. Can only be called by the current owner.\n     *\n     * > Note: Renouncing ownership will leave the contract without an owner,\n     * thereby removing any functionality that is only available to the owner.\n     */\n\n    /**\n     * @dev Transfers ownership of the contract to a new account (`newOwner`).\n     * Can only be called by the current owner.\n     */\n    function transferOwnership(address _newOwner) public onlyOwner {\n        _transferOwnership(_newOwner);\n    }\n\n    /**\n     * @dev Transfers ownership of the contract to a new account (`newOwner`).\n     */\n    function _transferOwnership(address _newOwner) internal {\n        require(\n            _newOwner != address(0),\n            \"Ownable: new owner is the zero address\"\n        );\n        emit OwnershipTransferred(_owner, _newOwner);\n        _owner = _newOwner;\n    }\n}\n\n\n// safemath library for addition and subtraction\n\nlibrary SafeMath {\n    function safeAdd(uint a, uint b) internal pure returns (uint c) {\n        c = a + b;\n        require(c >= a);\n    }\n    function safeSub(uint a, uint b) internal pure returns (uint c) {\n        require(b <= a);\n        c = a - b;\n    }\n    function safeMul(uint a, uint b) internal pure returns (uint c) {\n        c = a * b;\n        require(a == 0 || c / a == b);\n    }\n    function safeDiv(uint a, uint b) internal pure returns (uint c) {\n        require(b > 0);\n        c = a / b;\n    }\n}\n\n\ncontract Token is Ownable{\n    using SafeMath for uint256;\n    string _name;\n    string _symbol; \n    uint256 _totalsupply;\n    uint256 _decimal;\n    mapping(address=>uint256) _balance;\n    mapping(address=> mapping(address=>uint256)) _allownce;\n    function initialize() initializer override public{\n        Ownable.initialize();\n        _name=\"armughan\";\n        _symbol=\"armu\";\n        _decimal=0;\n        _totalsupply=100*10**_decimal;\n        _balance[msg.sender]=_totalsupply;\n    }\n    modifier ZeroAddressHell(address _add){\n        require(_add != address(0),\"Zero Address\");\n        _;\n    }\n    function totalsupply() public view returns(uint256){\n        return _totalsupply;\n    }\n    function decimal() public view returns(uint256){\n        return _decimal;\n    }\n    function balanceOf(address _tokenOwner) public view returns(uint256){\n        return _balance[_tokenOwner];\n    }\n    function allowance(address _tokenOwner,address _spender) public view returns(uint256){\n        return _allownce[_tokenOwner][_spender];\n    }\n    function transfer(address _to,uint256 _tokens) public returns(bool){\n        transferHelper(msg.sender,_to,_tokens);\n        return true;\n    }\n    function transferHelper(address _sender,address _receiver,uint256 _amount) public ZeroAddressHell(msg.sender){\n        require(_amount<=_balance[_sender],\"Not enough Balance\");\n        _balance[_sender]=_balance[_sender].safeSub(_amount);\n        _balance[_receiver]=_balance[_receiver].safeAdd(_amount);\n    }\n    //     function approve(address _spender, uint256 _tokens)  external returns (bool);\n    function approve(address _spender,uint256 _tokens) external returns (bool){\n        ApproveHelper(msg.sender,_spender,_tokens);\n        return true;\n    }\n    function ApproveHelper(address _sender,address _spender,uint256 _amount) public ZeroAddressHell(msg.sender){\n        _allownce[_sender][_spender]=_amount;\n    }\n    //     function transferFrom(address _from, address _to, uint256 _tokens) external returns (bool);\n    function transferFrom(address _from,address _to,uint256 _tokens) external returns (bool){\n        transferHelper(_from,_to,_tokens);\n        ApproveHelper(_from,_to,_allownce[_from][_to].safeSub(_tokens));\n        return true;\n    }\n}",
  "sourcePath": "contracts/Token.sol",
  "abi": [
    {
      "anonymous": false,
      "inputs": [
        {
          "indexed": true,
          "internalType": "address",
          "name": "previousOwner",
          "type": "address"
        },
        {
          "indexed": true,
          "internalType": "address",
          "name": "newOwner",
          "type": "address"
        }
      ],
      "name": "OwnershipTransferred",
      "type": "event"
    },
    {
      "inputs": [],
      "name": "initialize",
      "outputs": [],
      "stateMutability": "nonpayable",
      "type": "function"
    },
    {
      "inputs": [],
      "name": "isOwner",
      "outputs": [
        {
          "internalType": "bool",
          "name": "",
          "type": "bool"
        }
      ],
      "stateMutability": "view",
      "type": "function"
    },
    {
      "inputs": [],
      "name": "owner",
      "outputs": [
        {
          "internalType": "address",
          "name": "",
          "type": "address"
        }
      ],
      "stateMutability": "view",
      "type": "function"
    },
    {
      "inputs": [
        {
          "internalType": "address",
          "name": "_newOwner",
          "type": "address"
        }
      ],
      "name": "transferOwnership",
      "outputs": [],
      "stateMutability": "nonpayable",
      "type": "function"
    }
  ],
  "bytecode": "0x608060405234801561001057600080fd5b5061059e806100206000396000f3fe608060405234801561001057600080fd5b506004361061004c5760003560e01c80638129fc1c146100515780638da5cb5b1461005b5780638f32d59b1461008f578063f2fde38b146100af575b600080fd5b6100596100f3565b005b6100636102af565b604051808273ffffffffffffffffffffffffffffffffffffffff16815260200191505060405180910390f35b6100976102d9565b60405180821515815260200191505060405180910390f35b6100f1600480360360208110156100c557600080fd5b81019080803573ffffffffffffffffffffffffffffffffffffffff169060200190929190505050610331565b005b600060019054906101000a900460ff168061011257506101116103b7565b5b80610128575060008054906101000a900460ff16155b61017d576040517f08c379a000000000000000000000000000000000000000000000000000000000815260040180806020018281038252602e81526020018061053b602e913960400191505060405180910390fd5b60008060019054906101000a900460ff1615905080156101cd576001600060016101000a81548160ff02191690831515021790555060016000806101000a81548160ff0219169083151502179055505b33603360006101000a81548173ffffffffffffffffffffffffffffffffffffffff021916908373ffffffffffffffffffffffffffffffffffffffff160217905550603360009054906101000a900473ffffffffffffffffffffffffffffffffffffffff1673ffffffffffffffffffffffffffffffffffffffff16600073ffffffffffffffffffffffffffffffffffffffff167f8be0079c531659141344cd1fd0a4f28419497f9722a3daafe3b4186f6b6457e060405160405180910390a380156102ac5760008060016101000a81548160ff0219169083151502179055505b50565b6000603360009054906101000a900473ffffffffffffffffffffffffffffffffffffffff16905090565b6000603360009054906101000a900473ffffffffffffffffffffffffffffffffffffffff1673ffffffffffffffffffffffffffffffffffffffff163373ffffffffffffffffffffffffffffffffffffffff1614905090565b6103396102d9565b6103ab576040517f08c379a00000000000000000000000000000000000000000000000000000000081526004018080602001828103825260208152602001807f4f776e61626c653a2063616c6c6572206973206e6f7420746865206f776e657281525060200191505060405180910390fd5b6103b4816103ce565b50565b6000803090506000813b9050600081149250505090565b600073ffffffffffffffffffffffffffffffffffffffff168173ffffffffffffffffffffffffffffffffffffffff161415610454576040517f08c379a00000000000000000000000000000000000000000000000000000000081526004018080602001828103825260268152602001806105156026913960400191505060405180910390fd5b8073ffffffffffffffffffffffffffffffffffffffff16603360009054906101000a900473ffffffffffffffffffffffffffffffffffffffff1673ffffffffffffffffffffffffffffffffffffffff167f8be0079c531659141344cd1fd0a4f28419497f9722a3daafe3b4186f6b6457e060405160405180910390a380603360006101000a81548173ffffffffffffffffffffffffffffffffffffffff021916908373ffffffffffffffffffffffffffffffffffffffff1602179055505056fe4f776e61626c653a206e6577206f776e657220697320746865207a65726f2061646472657373436f6e747261637420696e7374616e63652068617320616c7265616479206265656e20696e697469616c697a6564a2646970667358221220d71157dbe7dc383b9a9ad1969a60d14a57ceab633cdf1f8890f5ffe59e40f25e64736f6c634300060c0033",
  "compiler": {
    "name": "solc",
    "version": "0.6.12+commit.27d51765.Emscripten.clang",
    "optimizer": {
      "enabled": false,
      "runs": 200
    },
    "evmVersion": "petersburg"
  }
}